:100000000C942A000C9447000C9447000C94470071
:100010000C9447000C9447000C9447000C94470044
:100020000C9447000C9447000C9447000C948809EA
:100030000C9447000C9447000C9447000C94470024
:100040000C9447000C9447000C9447000C94470014
:100050000C94470011241FBECFE5D8E0DEBFCDBF12
:1000600010E0A8E6B0E001C01D92A337B107E1F7A8
:1000700010E0A0E6B0E0E8E9F5E202C005900D92DC
:10008000A836B107D9F70E9499110C94CA120C94A2
:100090000000EF92FF920F931F937B018C0120E0F1
:1000A00030E040E05FE40E94490388238CF0C801FF
:1000B000B70120E030E040E05FE40E94C1010E940F
:1000C000A9039B01AC01205030404040504806C07D
:1000D000C801B7010E94A9039B01AC01B901CA0183
:1000E0001F910F91FF90EF900895A0E0B0E0EBE733
:1000F000F0E00C949312DC012B01FA019C919230F8
:1001000008F439C1EB018881823008F433C194309E
:1001100069F4843009F02FC111969C91119789815F
:10012000981709F428C1A0E6B0E025C1843009F48D
:1001300021C18230A9F4923009F01DC19A01AD01AC
:1001400088E0EA010990AE01E90109929E0181501F
:10015000C1F7E201898111969C918923818308C1AD
:10016000923009F407C112962D903C901397EB0141
:100170008A819B811496AD90BD90CD90DC901797AD
:10018000EC80FD800E811F819101281B390BB90184
:1001900037FF04C066277727621B730B6032710537
:1001A0000CF061C0121613066CF537014801062EDB
:1001B00004C096948794779467940A94D2F721E0C8
:1001C00030E040E050E004C0220F331F441F551FB1
:1001D0006A95D2F721503040404050402E213F21B7
:1001E00040235123211531054105510521F021E01E
:1001F00030E040E050E079018A01E628F72808293C
:1002000019293CC0232BD1F1260E371E350146019A
:10021000062E04C096948794779467940A94D2F734
:1002200021E030E040E050E004C0220F331F441FC3
:10023000551F6A95D2F721503040404050402A2146
:100240003B214C215D21211531054105510521F04E
:1002500021E030E040E050E059016A01A628B728CB
:10026000C828D9280BC0821593052CF01C01AA249C
:10027000BB24650103C0EE24FF24870111969C91E5
:10028000D20111968C91981709F445C0992339F041
:10029000A80197012A193B094C095D0906C0A6016E
:1002A00095012E193F09400B510B57FD08C01182D3
:1002B0003382228224833583468357831DC081E0A5
:1002C00081833382228288279927DC01821B930B4A
:1002D000A40BB50B84839583A683B7830DC0220F2F
:1002E000331F441F551F24833583468357838281E0
:1002F000938101979383828324813581468157813D
:10030000DA01C9010197A109B1098F5F9F4FAF4F72
:10031000BF4328F30BC0918333822282EA0CFB1C7B
:100320000C1D1D1DE482F5820683178383E0808304
:10033000248135814681578157FF1AC0C901AA27F8
:1003400097FDA095BA2F81709070A070B0705695EF
:10035000479537952795822B932BA42BB52B848318
:100360009583A683B7838281938101969383828349
:10037000DF0101C0D201CD01CDB7DEB7E2E10C94BF
:10038000AF12A0E2B0E0E7ECF1E00C949F126983B9
:100390007A838B839C832D833E834F835887E9E048
:1003A000EE2EF12CEC0EFD1ECE010196B7010E943F
:1003B000D2048E010F5E1F4FCE010596B8010E9438
:1003C000D2048A8991E089278A8BC701B801AE01DE
:1003D000475E5F4F0E9475000E94FD03A096E6E015
:1003E0000C94BB12A0E2B0E0E8EFF1E00C949F1295
:1003F00069837A838B839C832D833E834F835887C5
:10040000F9E0EF2EF12CEC0EFD1ECE010196B701A6
:100410000E94D2048E010F5E1F4FCE010596B801D7
:100420000E94D204C701B801AE01475E5F4F0E942F
:1004300075000E94FD03A096E6E00C94BB12A0E2BA
:10044000B0E0E5E2F2E00C94931269837A838B8347
:100450009C832D833E834F835887CE010196BE0136
:10046000675F7F4F0E94D204CE010596BE016F5E8A
:100470007F4F0E94D2049985923088F0898982301A
:10048000C8F0943019F4823051F404C0843029F457
:10049000923081F480E690E0C6C0923049F420E0CA
:1004A0009A858A89981321E02A87CE010996BBC0D4
:1004B000823049F420E09A858A89981321E02A8BBA
:1004C000CE014196B0C02D843E844F8458886D88FB
:1004D0007E888F88988CEE24FF248701AA24BB2471
:1004E000650140E050E060E070E0E0E0F0E0C10174
:1004F00081709070892BE9F0E60CF71C081D191D1E
:100500009A01AB012A0D3B1D4C1D5D1D80E090E062
:10051000A0E0B0E0E614F7040805190520F481E036
:1005200090E0A0E0B0E0BA01A901480F591F6A1F8E
:100530007B1FAA0CBB1CCC1CDD1C97FE08C081E0F5
:1005400090E0A0E0B0E0A82AB92ACA2ADB2A3196B6
:10055000E032F10549F0660C771C881C991C569412
:10056000479437942794C3CFFA85EA892B893C892D
:100570008B859C85280F391F2E5F3F4F17C0CA01FE
:1005800081709070892B61F016950795F794E79428
:1005900080E090E0A0E0B0E8E82AF92A0A2B1B2BC3
:1005A00076956795579547952F5F3F4F77FDE7CF36
:1005B0000CC0440F551F661F771F17FD4160EE0CDE
:1005C000FF1C001F111F21503040403090E05907A0
:1005D00090E0690790E4790760F32B8F3C8FDB0193
:1005E000CA018F779070A070B07080349105A1051A
:1005F000B10561F447FD0AC0E114F10401051105DC
:1006000029F0405C5F4F6F4F7F4F40781A8EFE1786
:1006100011F081E08A8F4D8F5E8F6F8F78A383E01A
:10062000898FCE0149960E94FD03A096E2E10C94C9
:10063000AF12A8E1B0E0EFE1F3E00C949F12698300
:100640007A838B839C832D833E834F83588789E0F5
:10065000E82EF12CEC0EFD1ECE010196B7010E9492
:10066000D2048E010F5E1F4FCE010596B8010E9485
:10067000D2048985823040F08989823028F0C70110
:10068000B8010E944A0501C08FEF6896E6E00C941D
:10069000BB12A8E1B0E0EFE4F3E00C949F12698391
:1006A0007A838B839C832D833E834F83588789E095
:1006B000E82EF12CEC0EFD1ECE010196B7010E9432
:1006C000D2048E010F5E1F4FCE010596B8010E9425
:1006D000D2048985823040F08989823028F0C701B0
:1006E000B8010E944A0501C08FEF6896E6E00C94BD
:1006F000BB12A8E1B0E0EFE7F3E00C949F1269832E
:100700007A838B839C832D833E834F83588789E034
:10071000E82EF12CEC0EFD1ECE010196B7010E94D1
:10072000D2048E010F5E1F4FCE010596B8010E94C4
:10073000D2048985823040F08989823028F0C7014F
:10074000B8010E944A0501C081E06896E6E00C9479
:10075000BB12ACE0B0E0EFEAF3E00C94A3126983C3
:100760007A838B839C83CE010196BE016B5F7F4FA2
:100770000E94D2048D81823061F1823050F1843048
:1007800021F48E81882351F12EC02F81388537FDC9
:1007900020C06E812F3131051CF06623F9F023C093
:1007A0008EE190E0821B930B29853A854B855C8511
:1007B00004C056954795379527958A95D2F76623B5
:1007C000B1F050954095309521953F4F4F4F5F4F79
:1007D0000EC020E030E040E050E009C02FEF3FEFD6
:1007E0004FEF5FE704C020E030E040E050E8B9019F
:1007F000CA012C96E2E00C94BF12DF92EF92FF92B6
:100800000F931F93FC01E480F58006811781D1804E
:100810008081823048F480E090E0A0E1B0E0E82AF6
:10082000F92A0A2B1B2BA5C0843009F49FC0823003
:1008300021F4EE24FF24870105C0E114F104010531
:10084000110519F4E0E0F0E096C0628173819FEF3A
:10085000623879070CF05BC022E83FEF261B370BAC
:100860002A3131052CF020E030E040E050E02AC091
:10087000B801A701022E04C0769567955795479554
:100880000A94D2F781E090E0A0E0B0E004C0880FC5
:10089000991FAA1FBB1F2A95D2F70197A109B10979
:1008A0008E219F21A023B1230097A105B10521F03E
:1008B00081E090E0A0E0B0E09A01AB01282B392B59
:1008C0004A2B5B2BDA01C9018F779070A070B07052
:1008D00080349105A105B10539F427FF09C0205CDA
:1008E0003F4F4F4F5F4F04C0215C3F4F4F4F5F4F13
:1008F000E0E0F0E02030A0E03A07A0E04A07A0E402
:100900005A0710F0E1E0F0E079018A0127C0603871
:10091000710564F5FB01E158FF4FD801C7018F77DE
:100920009070A070B07080349105A105B10539F4C4
:10093000E7FE0DC080E490E0A0E0B0E004C08FE3EB
:1009400090E0A0E0B0E0E80EF91E0A1F1B1F17FFA1
:1009500005C016950795F794E794319687E01695AC
:100960000795F794E7948A95D1F705C0EE24FF2404
:100970008701EFEFF0E06E2F679566276795902F60
:100980009F77D794DD24D7948E2F8695492F462BB9
:10099000582F5D29B701CA011F910F91FF90EF9069
:1009A000DF900895FC01DB01408151812281622F9B
:1009B0006F7770E0221F2227221F9381892F880FD3
:1009C000822B282F30E0991F9927991F11969C930D
:1009D000119721153105A9F54115510561057105DD
:1009E00011F482E037C082E89FEF13969C938E93B8
:1009F00012979A01AB0167E0220F331F441F551F66
:100A00006A95D1F783E08C930DC0220F331F441FEA
:100A1000551F12968D919C911397019713969C9355
:100A20008E931297203080E0380780E0480780E4FA
:100A3000580758F314962D933D934D935C93179755
:100A400008952F3F310579F4411551056105710570
:100A500019F484E08C93089564FF03C081E08C93C3
:100A600012C01C9210C02F57304013963C932E9307
:100A7000129783E08C9387E0440F551F661F771F02
:100A80008A95D1F7706414964D935D936D937C9322
:100A9000179708951F93DC01FB019C91923008F495
:100AA00047C08081823008F443C0943051F41196DD
:100AB0001C91843099F58181682F70E0611B710968
:100AC0003FC0843021F0923031F48230B9F181811D
:100AD000882389F12DC011961C9111978230F1F075
:100AE00081811817D9F412962D913C911397828128
:100AF00093818217930794F028173907BCF0149656
:100B00008D919D910D90BC91A02D248135814681C0
:100B10005781281739074A075B0718F4112341F05A
:100B20000AC082179307A407B50740F4112319F0F0
:100B300061E070E005C06FEF7FEF02C060E070E041
:100B4000CB011F910895DF93CF93CDB7DEB782E03D
:100B50006FE041E00E948906CF91DF910895DF9315
:100B6000CF930F92CDB7DEB789838981982F91708B
:100B700082E061E0492F0E94B00789818695982F15
:100B8000917082E062E0492F0E94B00789818695CA
:100B90008695982F917082E064E0492F0E94B007FB
:100BA0008981869586958695982F917082E068E078
:100BB000492F0E94B0070F90CF91DF910895DF93E6
:100BC000CF93CDB7DEB782E060EF41E00E948906A7
:100BD000CF91DF910895DF93CF930F92CDB7DEB71A
:100BE00089838981982F917082E060E1492F0E946A
:100BF000B00789818695982F917082E060E2492F35
:100C00000E94B007898186958695982F917082E021
:100C100060E4492F0E94B007898186958695869564
:100C2000982F917082E060E8492F0E94B0070F90E2
:100C3000CF91DF910895DF93CF93CDB7DEB7A7E2D1
:100C4000B0E0E7E2F0E0808180688C93A7E2B0E05A
:100C5000E7E2F0E080818F7B8C93A7E2B0E0E7E2EF
:100C6000F0E080818F7D8C93A6E2B0E0E6E2F0E0D8
:100C7000808181608C93A6E2B0E0E6E2F0E08081C2
:100C800082608C93A6E2B0E0E6E2F0E080818460CE
:100C90008C93A6E2B0E0E6E2F0E0808180688C937D
:100CA000CF91DF910895DF93CF930F92CDB7DEB749
:100CB0008983A7E2B0E0E7E2F0E08081807E8C9358
:100CC000A7E2B0E0E7E2F0E090818981892B8C9384
:100CD000A6E2B0E0E6E2F0E0808180648C93E6E298
:100CE000F0E0808182958F70882F90E08170907005
:100CF0000097A9F3A6E2B0E0E6E2F0E0808180612F
:100D00008C93E4E2F0E0808191810F90CF91DF91AC
:100D10000895DF93CF93CDB7DEB72D970FB6F89434
:100D2000DEBF0FBECDBF89836A834B838981282FA5
:100D300030E03D872C878C859D858230910509F4B4
:100D400054C02C853D852330310534F48C859D8538
:100D50008130910571F0FBC02C853D852330310534
:100D600009F47FC08C859D858430910509F4B5C058
:100D7000EEC08B81282F30E03B872A878A859B85B0
:100D800082309105A1F02A853B8523303105D1F0D1
:100D90008A859B858130910509F0D9C0AAE3B0E02E
:100DA000EAE3F0E090818A81892B8C93D0C0AAE39A
:100DB000B0E0EAE3F0E08081982F8A818095892372
:100DC0008C93C5C0AAE3B0E0EAE3F0E08081982FFD
:100DD0008A81809589238C93ABE3B0E0EBE3F0E06C
:100DE00090818A81892B8C93B2C08B81282F30E02F
:100DF000398728878885998582309105A1F02885D3
:100E0000398523303105D1F0888599858130910568
:100E100009F09DC0A7E3B0E0E7E3F0E090818A81AC
:100E2000892B8C9394C0A7E3B0E0E7E3F0E08081E6
:100E3000982F8A81809589238C9389C0A7E3B0E09D
:100E4000E7E3F0E08081982F8A81809589238C9355
:100E5000A8E3B0E0E8E3F0E090818A81892B8C93ED
:100E600076C08B81282F30E03F832E838E819F8137
:100E700082309105A1F02E813F8123303105D1F0E0
:100E80008E819F818130910509F061C0A4E3B0E0BB
:100E9000E4E3F0E090818A81892B8C9358C0A4E32D
:100EA000B0E0E4E3F0E08081982F8A818095892387
:100EB0008C934DC0A4E3B0E0E4E3F0E08081982F90
:100EC0008A81809589238C93A5E3B0E0E5E3F0E087
:100ED00090818A81892B8C933AC08B81282F30E0B6
:100EE0003D832C838C819D818230910599F02C81EA
:100EF0003D8123303105C9F08C819D818130910580
:100F000031F5A1E3B0E0E1E3F0E090818A81892B43
:100F10008C931DC0A1E3B0E0E1E3F0E08081982F65
:100F20008A81809589238C9312C0A1E3B0E0E1E32C
:100F3000F0E08081982F8A81809589238C93A2E3A9
:100F4000B0E0E2E3F0E090818A81892B8C932D96CA
:100F50000FB6F894DEBF0FBECDBFCF91DF910895DD
:100F6000DF93CF93CDB7DEB72D970FB6F894DEBFE2
:100F70000FBECDBF89836A834B838981282F30E0E0
:100F80003D872C878C859D8582309105D9F12C85F4
:100F90003D852330310534F48C859D858130910564
:100FA00071F096C02C853D852330310509F44DC084
:100FB0008C859D858430910509F469C089C08B8139
:100FC000282F30E03B872A878A859B85009779F018
:100FD0002A853B852130310509F07AC0ABE3B0E0CA
:100FE000EBE3F0E090818A81892B8C9371C0ABE3B5
:100FF000B0E0EBE3F0E08081982F8A81809589232F
:101000008C9366C08B81282F30E0398728878885AC
:101010009985009779F0288539852130310509F0C7
:1010200057C0A8E3B0E0E8E3F0E090818A81892B23
:101030008C934EC0A8E3B0E0E8E3F0E08081982F05
:101040008A81809589238C9343C08B81282F30E03F
:101050003F832E838E819F81009771F02E813F8187
:1010600021303105A9F5A5E3B0E0E5E3F0E090819A
:101070008A81892B8C932CC0A5E3B0E0E5E3F0E0F6
:101080008081982F8A81809589238C9321C08B81C0
:10109000282F30E03D832C838C819D81009771F057
:1010A0002C813D812130310599F4A2E3B0E0E2E3E7
:1010B000F0E090818A81892B8C930AC0A2E3B0E092
:1010C000E2E3F0E08081982F8A81809589238C93D8
:1010D0002D960FB6F894DEBF0FBECDBFCF91DF9136
:1010E0000895DF93CF9300D000D0CDB7DEB78983CA
:1010F0006A838981282F30E03C832B838B819C81FC
:1011000082309105F9F02B813C812330310534F494
:101110008B819C818130910561F02EC02B813C81B7
:1011200023303105C1F08B819C8184309105E1F041
:1011300023C0ABE3B0E0EBE3F0E090818A81892744
:101140008C931AC0A8E3B0E0E8E3F0E090818A81D4
:1011500089278C9311C0A5E3B0E0E5E3F0E090812E
:101160008A8189278C9308C0A2E3B0E0E2E3F0E033
:1011700090818A8189278C930F900F900F900F9008
:10118000CF91DF910895DF93CF9300D000D00F92DD
:10119000CDB7DEB78A836B8319828A81282F30E02E
:1011A0003D832C838C819D818230910511F12C81AE
:1011B0003D812330310534F48C819D81813091054E
:1011C00061F03AC02C813D8123303105F1F08C81F2
:1011D0009D818430910529F12FC0E9E3F0E09081F1
:1011E0008B818923882319F081E0898325C01982A6
:1011F00023C0E6E3F0E090818B818923882319F0F6
:1012000081E0898319C0198217C0E3E3F0E090817F
:101210008B818923882319F081E089830DC019828D
:101220000BC0E0E3F0E090818B818923882319F0E3
:1012300081E0898301C0198289810F900F900F90FE
:101240000F900F90CF91DF910895DF93CF93CDB79B
:10125000DEB7AFE5B0E0EFE5F0E0808180688C9329
:10126000CF91DF910895DF93CF93CDB7DEB7AFE590
:10127000B0E0EFE5F0E080818F778C93CF91DF9144
:101280000895DF93CF93CDB7DEB7ECE5F0E080ECC7
:101290008083A3E5B0E0E3E5F0E0808188608C9393
:1012A000A3E5B0E0E3E5F0E0808180648C93A9E5FC
:1012B000B0E0E9E5F0E0808181608C93A3E5B0E0E7
:1012C000E3E5F0E080818E7F8C93A3E5B0E0E3E579
:1012D000F0E0808182608C93A3E5B0E0E3E5F0E08C
:1012E00080818B7F8C93CF91DF910895DF93CF9393
:1012F00000D0CDB7DEB79A83898389819A81909394
:101300006900809368000F900F90CF91DF9108954E
:101310001F920F920FB60F9211242F933F934F936A
:101320005F936F937F938F939F93AF93BF93EF934D
:10133000FF93DF93CF93CDB7DEB780916800909194
:101340006900009729F0E0916800F0916900099523
:10135000CF91DF91FF91EF91BF91AF919F918F91CD
:101360007F916F915F914F913F912F910F900FBEA1
:101370000F901F901895DF93CF930F92CDB7DEB7E4
:1013800019828981806889838981877F898389819E
:101390008F7E898389818F7D898389818F7B8983F2
:1013A000898182608983898184608983AAE2B0E02F
:1013B000EAE2F0E080818B7F8C93AAE2B0E0EAE27F
:1013C000F0E0808184708C93E0E4F0E08981808398
:1013D000198289818F778983E9E2F0E083E3808352
:1013E000AAE2B0E0EAE2F0E0808188608C93AAE2B1
:1013F000B0E0EAE2F0E0808180618C930F90CF91C1
:10140000DF910895DF93CF930F92CDB7DEB7898335
:10141000EBE2F0E08081829586958770882F90E0DE
:10142000817090700097A1F3ECE2F0E089818083F5
:101430000F90CF91DF910895DF93CF930F92CDB7A7
:10144000DEB7EBE2F0E080818823DCF7ECE2F0E04D
:101450008081898389810F90CF91DF910895DF93F7
:10146000CF93CDB7DEB783E060EF41E00E948906FD
:1014700083E060EF40E00E94B007CF91DF910895D4
:10148000DF93CF93CDB7DEB7E8970FB6F894DEBF02
:101490000FBECDBF83E060E141E00E94B00783E072
:1014A00060E240E00E94B00783E060E440E00E9418
:1014B000B00783E060E840E00E94B00780E090E081
:1014C000A8ECB2E48DAB9EABAFABB8AF6DA97EA973
:1014D0008FA998AD20E030E04AEF54E40E941F024B
:1014E000DC01CB0189AB9AABABABBCAB69A97AA9E8
:1014F0008BA99CA920E030E040E85FE30E947903DB
:1015000088232CF481E090E098AB8FA73FC069A9B5
:101510007AA98BA99CA920E03FEF4FE757E40E94EE
:10152000190318164CF56DA97EA98FA998AD20E076
:1015300030E040E251E40E941F02DC01CB01BC011B
:10154000CD010E944900DC01CB0198AB8FA70FC0F1
:1015500088EC90E09EA78DA78DA59EA50197F1F739
:101560009EA78DA78FA598A9019798AB8FA78FA548
:1015700098A9009769F714C069A97AA98BA99CA9B1
:101580000E944900DC01CB0198AB8FA78FA598A9D9
:101590009CA78BA78BA59CA50197F1F79CA78BA770
:1015A00083E060E140E00E94B00783E060E241E058
:1015B0000E94B00783E060E440E00E94B00783E04F
:1015C00060E840E00E94B00780E090E0A8ECB2E460
:1015D0008FA398A7A9A7BAA76FA178A589A59AA54F
:1015E00020E030E04AEF54E40E941F02DC01CB010E
:1015F0008BA39CA3ADA3BEA36BA17CA18DA19EA137
:1016000020E030E040E85FE30E94790388232CF477
:1016100081E090E09AA389A33FC06BA17CA18DA13A
:101620009EA120E03FEF4FE757E40E9419031816F0
:101630004CF56FA178A589A59AA520E030E040E29D
:1016400051E40E941F02DC01CB01BC01CD010E94CC
:101650004900DC01CB019AA389A30FC088EC90E07C
:1016600098A38F8F8F8D98A10197F1F798A38F8FF3
:1016700089A19AA101979AA389A389A19AA1009708
:1016800069F714C06BA17CA18DA19EA10E944900A5
:10169000DC01CB019AA389A389A19AA19E8F8D8F8A
:1016A0008D8D9E8D0197F1F79E8F8D8F83E060E188
:1016B00040E00E94B00783E060E240E00E94B00793
:1016C00083E060E441E00E94B00783E060E840E02E
:1016D0000E94B00780E090E0A8ECB2E4898F9A8F76
:1016E000AB8FBC8F698D7A8D8B8D9C8D20E030E027
:1016F0004AEF54E40E941F02DC01CB018D8B9E8BCC
:10170000AF8BB88F6D897E898F89988D20E030E00E
:1017100040E85FE30E94790388232CF481E090E0A5
:101720009C8B8B8B3FC06D897E898F89988D20E043
:101730003FEF4FE757E40E94190318164CF5698DE7
:101740007A8D8B8D9C8D20E030E040E251E40E9448
:101750001F02DC01CB01BC01CD010E944900DC016C
:10176000CB019C8B8B8B0FC088EC90E09A8B898B84
:1017700089899A890197F1F79A8B898B8B899C8942
:1017800001979C8B8B8B8B899C89009769F714C080
:101790006D897E898F89988D0E944900DC01CB017B
:1017A0009C8B8B8B8B899C89988B8F878F85988955
:1017B0000197F1F7988B8F8783E060E140E00E940A
:1017C000B00783E060E240E00E94B00783E060E49D
:1017D00040E00E94B00783E060E841E00E94B0076B
:1017E00080E090E0A8ECB2E48B879C87AD87BE8751
:1017F0006B857C858D859E8520E030E04AEF54E442
:101800000E941F02DC01CB018F839887A987BA87CA
:101810006F81788589859A8520E030E040E85FE334
:101820000E94790388232CF481E090E09E838D83CD
:101830003FC06F81788589859A8520E03FEF4FE72B
:1018400057E40E94190318164CF56B857C858D852D
:101850009E8520E030E040E251E40E941F02DC015E
:10186000CB01BC01CD010E944900DC01CB019E836C
:101870008D830FC088EC90E09C838B838B819C814F
:101880000197F1F79C838B838D819E8101979E83C5
:101890008D838D819E81009769F714C06F81788553
:1018A00089859A850E944900DC01CB019E838D8346
:1018B0008D819E819A83898389819A810197F1F72D
:1018C0009A838983E8960FB6F894DEBF0FBECDBF2A
:1018D000CF91DF910895DF93CF93CDB7DEB7E8972F
:1018E0000FB6F894DEBF0FBECDBF83E060E140E0ED
:1018F0000E94B00783E060E240E00E94B00783E00E
:1019000060E440E00E94B00783E060E841E00E94AC
:10191000B00780E090E0A8ECB2E48DAB9EABAFAB3B
:10192000B8AF6DA97EA98FA998AD20E030E04AEF4D
:1019300054E40E941F02DC01CB0189AB9AABABAB34
:10194000BCAB69A97AA98BA99CA920E030E040E84A
:101950005FE30E94790388232CF481E090E098AB48
:101960008FA73FC069A97AA98BA99CA920E03FEF66
:101970004FE757E40E94190318164CF56DA97EA98C
:101980008FA998AD20E030E040E251E40E941F02B0
:10199000DC01CB01BC01CD010E944900DC01CB017F
:1019A00098AB8FA70FC088EC90E09EA78DA78DA560
:1019B0009EA50197F1F79EA78DA78FA598A90197DE
:1019C00098AB8FA78FA598A9009769F714C069A94C
:1019D0007AA98BA99CA90E944900DC01CB0198AB94
:1019E0008FA78FA598A99CA78BA78BA59CA50197CE
:1019F000F1F79CA78BA783E060E140E00E94B0076D
:101A000083E060E240E00E94B00783E060E441E0F0
:101A10000E94B00783E060E840E00E94B00780E0E9
:101A200090E0A8ECB2E48FA398A7A9A7BAA76FA1EA
:101A300078A589A59AA520E030E04AEF54E40E94F9
:101A40001F02DC01CB018BA39CA3ADA3BEA36BA1A2
:101A50007CA18DA19EA120E030E040E85FE30E94E0
:101A6000790388232CF481E090E09AA389A33FC0F6
:101A70006BA17CA18DA19EA120E03FEF4FE757E431
:101A80000E94190318164CF56FA178A589A59AA58F
:101A900020E030E040E251E40E941F02DC01CB0173
:101AA000BC01CD010E944900DC01CB019AA389A3AE
:101AB0000FC088EC90E098A38F8F8F8D98A101972D
:101AC000F1F798A38F8F89A19AA101979AA389A36F
:101AD00089A19AA1009769F714C06BA17CA18DA17F
:101AE0009EA10E944900DC01CB019AA389A389A190
:101AF0009AA19E8F8D8F8D8D9E8D0197F1F79E8F70
:101B00008D8F83E060E140E00E94B00783E060E2F7
:101B100041E00E94B00783E060E440E00E94B0072B
:101B200083E060E840E00E94B00780E090E0A8EC2D
:101B3000B2E4898F9A8FAB8FBC8F698D7A8D8B8D34
:101B40009C8D20E030E04AEF54E40E941F02DC014B
:101B5000CB018D8B9E8BAF8BB88F6D897E898F89E2
:101B6000988D20E030E040E85FE30E94790388230D
:101B70002CF481E090E09C8B8B8B3FC06D897E893B
:101B80008F89988D20E03FEF4FE757E40E941903BB
:101B900018164CF5698D7A8D8B8D9C8D20E030E088
:101BA00040E251E40E941F02DC01CB01BC01CD01E7
:101BB0000E944900DC01CB019C8B8B8B0FC088EC11
:101BC00090E09A8B898B89899A890197F1F79A8B92
:101BD000898B8B899C8901979C8B8B8B8B899C89AA
:101BE000009769F714C06D897E898F89988D0E944E
:101BF0004900DC01CB019C8B8B8B8B899C89988B5A
:101C00008F878F8598890197F1F7988B8F8783E06D
:101C100060E141E00E94B00783E060E240E00E94A2
:101C2000B00783E060E440E00E94B00783E060E832
:101C300040E00E94B00780E090E0A8ECB2E48B871F
:101C40009C87AD87BE876B857C858D859E8520E0D2
:101C500030E04AEF54E40E941F02DC01CB018F8385
:101C60009887A987BA876F81788589859A8520E0CA
:101C700030E040E85FE30E94790388232CF481E0A0
:101C800090E09E838D833FC06F81788589859A859A
:101C900020E03FEF4FE757E40E94190318164CF578
:101CA0006B857C858D859E8520E030E040E251E4A7
:101CB0000E941F02DC01CB01BC01CD010E94490042
:101CC000DC01CB019E838D830FC088EC90E09C8368
:101CD0008B838B819C810197F1F79C838B838D8112
:101CE0009E8101979E838D838D819E81009769F7E8
:101CF00014C06F81788589859A850E944900DC012E
:101D0000CB019E838D838D819E819A838983898176
:101D10009A810197F1F79A838983E8960FB6F89430
:101D2000DEBF0FBECDBFCF91DF910895DF93CF937C
:101D3000CDB7DEB72E970FB6F894DEBF0FBECDBF7E
:101D400010926C0097C080916C0095E0292F281BA1
:101D5000822F0E94AF0510926B0082C090916B00A1
:101D600089E0891B0E94EB0580E090E0A8E4B3E4E1
:101D70008B879C87AD87BE876B857C858D859E858F
:101D800020E030E04AEF54E40E941F02DC01CB0166
:101D90008F839887A987BA876F81788589859A8587
:101DA00020E030E040E85FE30E94790388232CF4D0
:101DB00081E090E09E838D833FC06F817885898527
:101DC0009A8520E03FEF4FE757E40E941903181669
:101DD0004CF56B857C858D859E8520E030E040E26A
:101DE00051E40E941F02DC01CB01BC01CD010E9425
:101DF0004900DC01CB019E838D830FC088EC90E00D
:101E00009C838B838B819C810197F1F79C838B83CF
:101E10008D819E8101979E838D838D819E81009708
:101E200069F714C06F81788589859A850E94490079
:101E3000DC01CB019E838D838D819E819A83898372
:101E400089819A810197F1F79A83898384E060E818
:101E500041E00E94B00780916B008F5F80936B0020
:101E600080916B008A3008F479CF80916C008F5F8D
:101E700080936C0080916C00863008F464CF1092DF
:101E80006C0010926B002E960FB6F894DEBF0FBE5A
:101E9000CDBFCF91DF910895DF93CF93CDB7DEB75C
:101EA000EA970FB6F894DEBF0FBECDBF80917100E8
:101EB00090917200019690937200809371008091CE
:101EC0006F009091700001969093700080936F0066
:101ED000809171009091720021E08039920709F0A1
:101EE00088C180916D0090916E00019690936E0074
:101EF00080936D0080916D0090916E00813091050E
:101F000009F00EC21AAE19AEF3C083E068E041E0FA
:101F10000E94B00780E090E0A8ECB2E48DAB9EABED
:101F2000AFABB8AF6DA97EA98FA998AD20E030E026
:101F30004AEF54E40E941F02DC01CB0189AB9AAB4B
:101F4000ABABBCAB69A97AA98BA99CA920E030E016
:101F500040E85FE30E94790388232CF481E090E05D
:101F600098AB8FA73FC069A97AA98BA99CA920E04B
:101F70003FEF4FE757E40E94190318164CF56DA97F
:101F80007EA98FA998AD20E030E040E251E40E94A4
:101F90001F02DC01CB01BC01CD010E944900DC0124
:101FA000CB0198AB8FA70FC088EC90E09EA78DA7C0
:101FB0008DA59EA50197F1F79EA78DA78FA598A93E
:101FC000019798AB8FA78FA598A9009769F714C0C0
:101FD00069A97AA98BA99CA90E944900DC01CB01BF
:101FE00098AB8FA78FA598A99CA78BA78BA59CA51D
:101FF0000197F1F79CA78BA783E068E040E00E947F
:10200000B00780E090E0A8ECB2E48FA398A7A9A75E
:10201000BAA76FA178A589A59AA520E030E04AEF7C
:1020200054E40E941F02DC01CB018BA39CA3ADA34F
:10203000BEA36BA17CA18DA19EA120E030E040E871
:102040005FE30E94790388232CF481E090E09AA357
:1020500089A33FC06BA17CA18DA19EA120E03FEF91
:102060004FE757E40E94190318164CF56FA178A5A5
:1020700089A59AA520E030E040E251E40E941F02C9
:10208000DC01CB01BC01CD010E944900DC01CB0188
:102090009AA389A30FC088EC90E098A38F8F8F8DAF
:1020A00098A10197F1F798A38F8F89A19AA1019721
:1020B0009AA389A389A19AA1009769F714C06BA17B
:1020C0007CA18DA19EA10E944900DC01CB019AA3B5
:1020D00089A389A19AA19E8F8D8F8D8D9E8D019749
:1020E000F1F79E8F8D8F89AD9AAD01969AAF89AF2A
:1020F00089AD9AAD853091050CF407CF80E090E072
:10210000AAE7B4E4898F9A8FAB8FBC8F698D7A8DE3
:102110008B8D9C8D20E030E04AEF54E40E941F023A
:10212000DC01CB018D8B9E8BAF8BB88F6D897E8947
:102130008F89988D20E030E040E85FE30E947903CA
:1021400088232CF481E090E09C8B8B8B3FC06D89C1
:102150007E898F89988D20E03FEF4FE757E40E94FA
:10216000190318164CF5698D7A8D8B8D9C8D20E0A6
:1021700030E040E251E40E941F02DC01CB01BC01CF
:10218000CD010E944900DC01CB019C8B8B8B0FC0E1
:1021900088EC90E09A8B898B89899A890197F1F76D
:1021A0009A8B898B8B899C8901979C8B8B8B8B89D4
:1021B0009C89009769F714C06D897E898F89988DF5
:1021C0000E944900DC01CB019C8B8B8B8B899C8905
:1021D000988B8F878F8598890197F1F7988B8F87D8
:1021E0000E94400A0E94960E109272001092710096
:1021F00097C080916F009091700023E0883E920715
:1022000009F08EC080916A00882309F089C084E0BB
:1022100060E840E00E94B00783E068E040E00E9490
:10222000B00780E090E0AAE7B4E48B879C87AD8795
:10223000BE876B857C858D859E8520E030E04AEFEA
:1022400054E40E941F02DC01CB018F839887A98789
:10225000BA876F81788589859A8520E030E040E8EB
:102260005FE30E94790388232CF481E090E09E8351
:102270008D833FC06F81788589859A8520E03FEF07
:102280004FE757E40E94190318164CF56B857C85BF
:102290008D859E8520E030E040E251E40E941F02DF
:1022A000DC01CB01BC01CD010E944900DC01CB0166
:1022B0009E838D830FC088EC90E09C838B838B8101
:1022C0009C810197F1F79C838B838D819E8101977F
:1022D0009E838D838D819E81009769F714C06F81E5
:1022E000788589859A850E944900DC01CB019E830F
:1022F0008D838D819E819A83898389819A810197BB
:10230000F1F79A8389830E946B0C10926E001092F1
:102310006D001092700010926F0081E080936A004F
:10232000EA960FB6F894DEBF0FBECDBFCF91DF9116
:102330000895DF93CF93CDB7DEB761970FB6F894CA
:10234000DEBF0FBECDBF10926A00198A188A1F86A1
:102350000E94A3050E94DF050E94BB0989890E9493
:10236000020A80E090E0A6E9B2E48B879C87AD8703
:10237000BE876B857C858D859E8520E030E04AEFA9
:1023800054E40E941F02DC01CB018F839887A98748
:10239000BA876F81788589859A8520E030E040E8AA
:1023A0005FE30E94790388232CF481E090E09E8310
:1023B0008D833FC06F81788589859A8520E03FEFC6
:1023C0004FE757E40E94190318164CF56B857C857E
:1023D0008D859E8520E030E040E251E40E941F029E
:1023E000DC01CB01BC01CD010E944900DC01CB0125
:1023F0009E838D830FC088EC90E09C838B838B81C0
:102400009C810197F1F79C838B838D819E8101973D
:102410009E838D838D819E81009769F714C06F81A3
:10242000788589859A850E944900DC01CB019E83CD
:102430008D838D819E819A83898389819A81019779
:10244000F1F79A8389830E942F0A81E061E042E0DC
:102450000E94890684E060E441E00E94890684E0ED
:1024600060E440E00E94B0070E941B0683E068E041
:1024700041E00E94890683E068E040E00E94B007E6
:1024800084E060E841E00E94890684E060E840E082
:102490000E94B0078CE49FE00E9476090E944109E7
:1024A0000E94250980E090E00E945306988B8F8758
:1024B0002F853889C901880F991F880F991F820FAE
:1024C000931F2FEF33E0B9010E947F12CB01988B4D
:1024D0008F878F8598898330910530F484E060E49C
:1024E00040E00E94B007DECF8F8598898330910548
:1024F000C8F284E060E441E00E94B007D3CFAA1B99
:10250000BB1B51E107C0AA1FBB1FA617B70710F0DE
:10251000A61BB70B881F991F5A95A9F78095909510
:10252000BC01CD0108952F923F924F925F926F921E
:102530007F928F929F92AF92BF92CF92DF92EF9253
:10254000FF920F931F93CF93DF93CDB7DEB7CA1BD4
:10255000DB0B0FB6F894DEBF0FBECDBF09942A88FF
:10256000398848885F846E847D848C849B84AA84A7
:10257000B984C884DF80EE80FD800C811B81AA8134
:10258000B981CE0FD11D0FB6F894DEBF0FBECDBFFF
:08259000ED010895F894FFCF5E
:0825980000000000000000003B
:00000001FF
